:100000007FC13ACC98C197C196C195C194C193C1A3
:1000100092C191C190C18FC18EC1E7CC8CC18BC1FF
:100020008AC189C188C187C186C185C184C183C194
:1000300082C181C100000000006480301210383895
:100040000000000038103838087C187C3838001060
:10005000083820007C387838787C7C384438044470
:1000600040444438783878387C44444444447810D8
:100070000000000000000000000010100000000060
:10008000000000380000006444482C28FEFE0000F8
:100090000004443044441840200444440010107CC0
:1000A0001040824444444440404444100448406C5E
:1000B00064444444444410444444444408283C08B0
:1000C0000000002078000000103840781200000086
:1000D00000440000000828304C44829200000008D0
:1000E00044100404284040084444301020440820B0
:1000F0003844444044404040441004504054544428
:10010000444444401044445428441044040404002B
:10011000404040000000107C40040A40180000826B
:100120003C202010300092829292003C001044103B
:10013000183848787810383C301040440410444453
:1001400078404478785C7C10046040444C447844A7
:1001500078381044445410282000040204004080E1
:10016000403C040410107018FE5024680082000007
:1001700000202400644482920000002044102004E7
:100180007C04442044040010204C0808107C4440A7
:100190004440404444104450404444444054480483
:1001A00010444454281040000404044440404000DB
:1001B00000007C1048200A60185400440000004CE5
:1001C000720054548EC630003040441040440844FD
:1001D000442044083010105C10041044444444404F
:1001E000404444104448404444444048444410443B
:1001F00028544410400000083C28782000000000EB
:100200003810481E1250005400380000004C700096
:10021000FC7CFEFE3000300038387C38083838204E
:1002200038303010087C200010447838787C403C0E
:10023000443838447C44443840344438103810281A
:1002400044107800000000100000000000001010B2
:100250004800004800440000203C2000000000004E
:10026000000020000000000000000000000000006E
:10027000000000000000000000000000000000007E
:10028000000000000000000000000000000000006E
:10029000000000000000000000043C04000000001A
:1002A000000000000004090D12161B1F23282C312A
:1002B00035393E42464B4F53575B6064686C7074EF
:1002C000787C8083878B8F9296999DA0A4A7ABAEF4
:1002D000B1B4B7BABEC0C3C6C9CCCED1D3D6D8DBB1
:1002E000DDDFE1E3E5E7E9EBECEEF0F1F3F4F5F661
:1002F000F7F8F9FAFBFCFDFDFEFEFEFFFFFFFF0035
:1003000011241FBECFEFD4E0DEBFCDBF13E0A0E0CD
:10031000B1E0EEE0FBE102C005900D92AA3AB10710
:10032000D9F714E0AAEAB3E001C01D92A831B107E1
:10033000E1F79ED6EACB64CE02C08856914021E018
:1003400088369207D0F7843B910520F0845B90407B
:1003500041E001C040E08A35910530F024EB30E007
:10036000B901681B790BCB018C559D4FFC01849121
:1003700090E0442319F0909581959F4F0895EF9256
:10038000FF920F931F93CF93DF93EC011AE500E0E8
:1003900010C0F12EF694EF2CE00E8E2D90E0CCDF05
:1003A0008C179D072CF4F0941F0D0E2D0F5F01C0CC
:1003B0001F2D112371F7802FDF91CF911F910F9186
:1003C000FF90EF900895CF92DF92EF92FF920F93FC
:1003D0001F93CF93DF93442309F49DC0421708F481
:1003E000242FFC01B5E0F695E795BA95E1F75E2F6D
:1003F0005F70FC01EF2FFF27E695FFE0FF2EFE2246
:10040000FC01EF2FFF27E295E695E7700E2F8F7125
:10041000E52FF0E0EF0DF11DE00FF11D1E2F110F84
:10042000180F87E6189FD0011124AB2FBB27A69584
:10043000A695EA2E39E0039F302D11243F0D952F0C
:10044000990F950F390F3A0F389FD0011124AB2F18
:10045000BB27A695A6955F2D550F550F5F0D500F25
:100460005A0F589FC0011124892F99278695869588
:10047000B02FBB0FBB0FBB0FB80F9AE1B99FE001C4
:1004800011246E010D2D253010F4DD2039F0902F50
:10049000905DFB019193415011F433C0FB0166EF75
:1004A000069F602D11246B0F243010F4662321F079
:1004B000605D6193415029F196EF899F902D112441
:1004C000950F233010F4992321F0905D91934150C2
:1004D000C1F086EFA89F802D1124830F223010F4E5
:1004E000882321F0805D8193413059F0A6EFEA9E88
:1004F000A02D1124A10F222311F4AA2311F0A05D35
:10050000A193CF01DF91CF911F910F91FF90EF90B9
:10051000DF90CF900895FB01F4CF1F93CF93DF932B
:10052000EC0168818CE3689FB0011124882777FD76
:100530008095982F1981212F2F77620F711D811DB2
:10054000911D20E737E140E050E06BDA2A813B81E2
:1005500040E050E0620F731F841F951F17FF07C014
:1005600090958095709561957F4F8F4F9F4FDF914C
:10057000CF911F910895482F50E024E230E0429F30
:10058000C001439F900D529F900D1124860F911D25
:100590008E5E9E4F08951F93FC01128117FF11C0BC
:1005A00081816081E8DFFC011F77810F911D06C00A
:1005B0002081222311F0206820833196E817F90763
:1005C000B8F31F910895FC0101C01192E617F707D7
:1005D000E0F308951F93CF93DF93EC01162F8981E9
:1005E0006881C9DFFC018A818F779F01280F311D47
:1005F000C90101C01193E817F907E0F3DF91CF912A
:100600001F910895AF92BF92CF92DF92EF92FF9227
:100610000F931F93DF93CF930F92CDB7DEB77C017B
:100620005B01142FFC01818160812983A4DFBC015F
:10063000F70142814F776C01C40ED11C298122231E
:1006400021F0FC012193BF01415001114150C5012E
:10065000212FB9DE5C01002319F0FC0101935F0139
:10066000C70199DFC501B601AEDFC5010F90CF917B
:10067000DF911F910F91FF90EF90DF90CF90BF908F
:10068000AF900895CF92DF92FF920F931F93DF9365
:10069000CF930F92CDB7DEB78C016B01DC011196C1
:1006A0008C9111976C91498366DFFC01D6012C91E6
:1006B00011963C9111976FE7F62EF32212966D91E9
:1006C0007C911397331F3327331FCB01880F991F5A
:1006D00043E0660F771F4A95E1F7860F971F66E0A4
:1006E00070E0CAD96B014981442331F0332311F002
:1006F00083E50AC08EE408C0243608F4119233233F
:1007000011F087E501C085E48193822F90E0BF015D
:1007100043E022E058DEBC0187E2FB018193BF0188
:100720008F2D90E042E022E04EDEBC018EE2DB0144
:100730008D93BD01C60144E024E045DEC8012BDFF6
:100740000F90CF91DF911F910F91FF90DF90CF908D
:100750000895DF92EF92FF920F931F93CF93DF9351
:10076000FC0182819381680F791FCB01880F991F4B
:10077000880F991F860F971F6AE070E07DD97383F9
:100780006283637039F0613039F0623039F4102FD0
:10079000042F06C0142F04C0122F02C0102F022FE6
:1007A000D080E180C0E0D0E0C0FF02C0F02E01C0E8
:1007B000F12EFE01EE0D8E2F6D2DDDDEFC01F0829F
:1007C0002196CC30D10581F7DF91CF911F910F9108
:1007D000FF90EF90DF9008956F927F928F929F929B
:1007E000BF92CF92DF92EF92FF920F931F93CF931E
:1007F000DF933A014901C82FD0E0BAE5EB2EF12C86
:10080000E60EF71ECB018C549F4F96DD9C012C9F6A
:10081000C0012D9F900D3C9F900D112400E011E030
:10082000B8013ED96B01C70187DDFC01EC9FC00117
:10083000ED9F900DFC9F900D1124B80131D9F3016B
:10084000C082F4016083669F802D1124CC9CB02C63
:1008500011248B0DDF91CF911F910F91FF90EF909D
:10086000DF90CF90BF909F908F907F906F90089572
:10087000FC0170E0DB01AA0FBB1FA650BC4F2D91FD
:100880003C9167587C4FDB014C9150E0429FC00186
:10089000439F900D529F900D11249C01232F3327CD
:1008A000269526952083322F2227330F330F821B64
:1008B000930B49E150E0849F9001859F300D949FF8
:1008C000300D11243183089580E1E4EDF3E0DF0180
:1008D0001D928A95E9F70895DC01E4EDF3E091912A
:1008E0008D91981731F483E0E93DF807C1F781E075
:1008F000089580E008951F93682F8091D4038D326E
:1009000021F070E0A4EDB3E003C071E0A5EDB3E029
:1009100080E090E0FD0123E0A43EB207B1F01D911C
:10092000212F20532A3088F49C01220F331FAC0161
:10093000E3E0440F551FEA95E1F7240F351F812F9F
:1009400090E0C097820F931FE5CF6623C9F0208106
:100950002E3209F431969C01220F331F43E0880F99
:10096000991F4A95E1F7820F931F2081322F305350
:100970003A3020F4C097820F911D3196615059F79B
:10098000772319F0909581959F4F1F9108950F93AC
:100990001F93CF93DF93FC018091D4038D3231F408
:1009A0008091D503A5EDB3E021E003C0A4EDB3E051
:1009B00020E08053ED012196880F182F110F110FA1
:1009C000180F11968C91180F1053DE011196139683
:1009D0008C9113978E3249F4110F812F880F880F55
:1009E000810F19811053180F1196ED0189918053D1
:1009F000880F982F990F990F980F11963C913053AB
:100A0000390FDE01129604E080E090E0EC01CC0F9B
:100A1000DD1F43E0880F991F4A95E1F7C80FD91FE2
:100A20004C91842F80538A3028F450E0405350403A
:100A3000119602C040E050E0CE01840F951F015096
:100A400029F7680F791F87E26031780718F0605145
:100A500077423F5F3C3310F03C531F5FCB01880F60
:100A6000991F860F971F880F991F10836AE070E007
:100A700003D8738362832795222727953F77322BEC
:100A80003183DF91CF911F910F9108958091D2030F
:100A90008823C1F480E091E01FDF882331F081E0FA
:100AA0008093D20310927803089586E091E014DFDA
:100AB000882309F49CC082E08093D20384E680936B
:100AC000780308958091D103882309F490C0809120
:100AD0007803883661F1893680F4873009F44CC098
:100AE000883020F4863009F082C03DC0893009F496
:100AF00048C0873609F07BC015C08B3609F448C062
:100B00008C3630F48936F1F08A3609F070C020C096
:100B10008C3609F445C0883C09F069C0E4EDF3E087
:100B200080E057C081EB93E06BE578E00FC08091E7
:100B3000D403833509F05BC08091B2038068809351
:100B4000B203089585EB93E061EF70E120DF089533
:100B50008091D403873509F04AC08091B60380683C
:100B60008093B603089580E0C6DE21E0009709F483
:100B700020E02093BF03089580E0BDDE8093BE0394
:100B8000089580E0B8DE9093BA038093B903089586
:100B900081E0B1DE6AE070E06FD76093BD03089535
:100BA00080E0A9DE9093BC038093BB0308958295F7
:100BB000807F292F2154263010F4975309C0292F04
:100BC0002156263010F4975503C090539A3008F4FC
:100BD000890F9191992321F023E0E53EF20739F73F
:100BE00091E02091D303821390E09093C003089585
:100BF0002F923F924F925F926F927F928F929F922D
:100C0000AF92BF92CF92DF92EF92FF920F931F931A
:100C1000DF93CF93CDB7DEB72D970FB6F894DEBF35
:100C20000FBECDBF2C017D836C835A8349832091F5
:100C3000C1033091C2034091C3035091C403FC012E
:100C400080819181A281B381281739074A075B0708
:100C5000F9F42091C5033091C6034091C703509128
:100C6000C80384819581A681B781281739074A076F
:100C70005B0771F4DB011D921D921D921C9213976C
:100C8000E981FA81309709F46DC1118210826AC13D
:100C9000D2012C9130E08091C10390E04091C203D9
:100CA00011965C911197452747FF03C09095819558
:100CB0009F4F820F931F97FF03C0909581959F4F81
:100CC00095958795865A9F4F37DB1C0181EC93E001
:100CD00024DC5B016C01C20120DC3B014C0185EC92
:100CE00093E01BDC7B018C01C201049616DC9B01A6
:100CF000AC012E193F09400B510B6A187B088C0878
:100D00009D08B101882777FD8095982F8AD6E72E18
:100D1000F82E092F112707FD1A9560E009C01595D7
:100D20000795F794E79495948794779467946F5F09
:100D3000A801970117FF07C022273327A9012E1901
:100D40003F09400B510B2F3FBFEF3B07B0E04B0774
:100D5000B0E05B0720F7D401C30197FE07C08827E6
:100D60009927DC0186199709A809B9098F3FEFEF88
:100D70009E07E0E0AE07E0E0BE0788F66B832E83B7
:100D80003F83488759878A879B87AC87BD87C8017F
:100D9000B701A801970145D61B012C01C401B3017D
:100DA000A40193013ED6E0E0570168010FC022E0A4
:100DB00056944794379427942A95D1F702E0969554
:100DC0008795779567950A95D1F7EF5FE92EFF2410
:100DD00000271127252D332744275527E20EF31E20
:100DE000041F151FFFEFEF16F1040105110509F0AF
:100DF000F0F686017501260E371E481E591E60E169
:100E000070E0A12CB12CC12CA0E4DA2E80E090E09F
:100E1000DC01A6019501282B392B4A2B5B2BB695BB
:100E2000A79597958795221633064406550640F0F8
:100E3000221A330A440A550A8A299B29AC29BD295A
:100E400022E0D694C794B794A7942A95D1F761501D
:100E50007040F9F65C016D0104C0AA0CBB1CCC1CEF
:100E6000DD1CEA95D2F729813A812115310509F473
:100E70005DC0A114B104C104D10409F44DC06114D2
:100E800071048104910429F417FD49C08AE590E0BA
:100E900048C08E819F81A885B9852A853B854C8570
:100EA0005D8582179307A407B50760F0942F832F01
:100EB000722F6627A601950106D6C90160DA282F90
:100EC00030E011C02E813F8148855985942F832FB2
:100ED000722F6627A6019501F6D5C90150DA2AE5D9
:100EE00030E0281B310916141704180419044CF4B7
:100EF00017FD03C08AE590E00CC0C901825F9E4FD8
:100F000010C017FD04C0C901865A9F4F0AC08EE069
:100F100091E0821B930B05C080E090E002C08EE060
:100F200091E0A981BA8111969C938E93C601B50177
:100F300029E732E040E050E074D5EBE096958795E4
:100F400077956795EA95D1F70B8004C0660F771FF8
:100F5000881F991F0A94D2F7EC81FD816083718309
:100F6000828393832D960FB6F894DEBF0FBECDBF5C
:100F7000CF91DF911F910F91FF90EF90DF90CF9075
:100F8000BF90AF909F908F907F906F905F904F90A9
:100F90003F902F900895EF92FF920F931F93CF935E
:100FA000DF9306E713E080917603F80162918F01E9
:100FB000E2DAEC01F80182818F777E01E80EF11C04
:100FC000C801E9DACE01B701FEDACE01DF91CF9197
:100FD0001F910F91FF90EF9008956F927F928F92E3
:100FE0009F92AF92CF92EF920F931F93DF93CF9385
:100FF00000D0CDB7DEB73C01162FFC0181816081A6
:101000002A834983B8DABC01F30182818F774B01CF
:10101000880E911C2A814981EE2019F0FB01E19292
:10102000BF01812F90E0CFD9BC01AA2019F0FC01AB
:10103000A192BF01802F90E042E022E0C4D98C0150
:10104000CC2019F0FC01C1928F01C301A4DAC801C0
:10105000B401B9DA0F900F90CF91DF911F910F91EA
:10106000EF90CF90AF909F908F907F906F9008956A
:10107000DF93CF93CDB7DEB72C970FB6F894DEBFD2
:101080000FBECDBF80E28BB980E48AB929988CE08D
:1010900084B980916F00816080936F00809181009E
:1010A00082608093810083E08093690011E01DBB22
:1010B00080E880BF10927B001EBC8DB58E7F8DBDF9
:1010C00084E58CBD68DF10927E0080917C00806496
:1010D00080937C0080917A00866080937A001092E1
:1010E0007B001093C50087E38093C40086E0809363
:1010F000C20080E18093C100E1EBF3E0DF01282F23
:101100001D922A95E9F7E1ECF3E0DF011D928A9543
:10111000E9F77894A2E06A2E712C6C0E7D1E1E01F8
:101120000894211C311C8091C00087FF94C010914D
:10113000C600909178039F3F21F4143209F08BC0D0
:1011400010C0143271F0153230F41A30A1F11D3094
:1011500009F06EC030C01A32F1F01C3209F068C0DC
:1011600015C01092D1031092D2031092D3031092A3
:101170007803A1EBB3E0E1ECF3E080E101900D92A4
:101180008150E1F71092C0039FDB65C08091D303CB
:1011900081278093D3037ADC97DB1092D10380916F
:1011A00078038F5F809378031A3209F054C088EC7B
:1011B0008093780350C06ADC8FEF8093780380912E
:1011C000C003882309F447C08091E4038F5F8093B4
:1011D000E403843010F01092E403A1ECB3E0E1EBFF
:1011E000F3E080E101900D928150E1F78091E503F9
:1011F000882389F18091CD039091E603981710F42C
:101200008093E6038091C9039091CA032091EF0374
:101210003091F003821B930B2091F1033091F20384
:1012200028173907C4F49093F2038093F10313C095
:101230008091D103E82FF0E0EC52FC4F1083983CF2
:1012400029F09091D30391279093D3038F3018F412
:101250008F5F8093D1034D9933C081E08093AF03BA
:101260008091B0038D33A0F15E9A8091C0038823F2
:1012700079F18091BF03882359F11092B003109245
:10128000F4031092F3031092E6031092F20310920B
:10129000F1031092F6031092F503A7EEB3E0E1EC30
:1012A000F3E08AE001900D928150E1F781E08093B4
:1012B000E5031092F7031092F8031092F90308C0A7
:1012C0008091AF0381115E981092AF031092B0032A
:1012D0008091AE03813009F026CF1092AE03809149
:1012E000AF03882329F08091B0038F5F8093B00310
:1012F0008091F7036CE3B4D3992309F06BC0EAEF54
:10130000F3E020E080917C00807F80937C008091DE
:101310007C00822B80937C0080917A00806A80938D
:101320007A0080917A00806480937A0080917A00BC
:1013300084FFFCCF80917A00806180937A00809155
:101340007A008F7580937A0080917800909179006F
:10135000819391932F5F2430A9F682E094E061E0BD
:1013600087DA84E094E060E083DA8091CF03882319
:1013700089F180910604882361F4A7E0B4E0E1ECF0
:10138000F3E08AE001900D928150E1F781E08093D3
:10139000060487E094E0B30140E050E029DC8A8154
:1013A0009B81AC81BD810097A105B10599F0209189
:1013B000F3033091F403280F391F3093F403209383
:1013C000F303A7E0B4E0E1ECF3E08AE001900D92D2
:1013D0008150E1F78091F70366E042D3992309F049
:1013E0001BC2D09011048091BF03882351F08091DB
:1013F000E503882311F4DD2011F05E9A06C05E98A3
:1014000004C08BB190E489278BB98091E5038823D0
:1014100009F187EE93E0B30142E154E0E9DB8A8110
:101420009B81AC81BD812091F5033091F60340E0B2
:1014300050E0281739074A075B0720F49093F6031A
:101440008093F5038093140490931504A0931604DD
:10145000B09317048090C9039090CA038091EF0362
:101460009091F003881A990AB090CD031091CF03A0
:10147000F4013A97FF83EE83809114049091150450
:10148000A0911604B091170488879987AA87BB8713
:1014900080910204882371F094E6899FC001112491
:1014A00020910304820F911D21E030E0A2E08E3EE6
:1014B0009A0710F020E030E0422E80910404882347
:1014C00071F094E6899FC001112420910504820FD8
:1014D000911D21E030E0B2E08E3E9B0710F020E04D
:1014E00030E0F22E6091F9030091F8038DE793E06C
:1014F00043E022E0EE24CC24FAE3AF2E6EDD11238C
:1015000069F080E893E065EC73E040E0BBD883E8E5
:1015100093E061EC73E041E0B5D80AC080E893E065
:101520006DE258D883E893E06DE254D8DD2079F07D
:101530006091CE0370E0E091E403F0E0E45FFE4FE1
:1015400086E893E042E026E200815CD804C086E8A9
:1015500093E060E23FD8442011F0DD2081F089E87B
:1015600093E06091020442E021E000910304EAE28A
:10157000EE2E76E5C72E5EE2A52E2FDD04C089E8AB
:1015800093E060E227D8FF2011F0DD2081F08CE8A5
:1015900093E06091040442E021E0009105043BE205
:1015A000E32E16E5C12EBEE2AB2E17DD04C08CE89B
:1015B00093E060E20FD888859985AA85BB85813D37
:1015C000E7E09E07E0E0AE07E0E0BE0710F0DD20B8
:1015D00059F060911404709115048FE893E044E091
:1015E00020E00DE60FD804C08FE893E060E2F2D768
:1015F000740197FE02C0EE24FF248E819F81A3E038
:101600008F3D9A0710F0DD2041F082E993E0B701A9
:1016100045E02CE300E0F6D704C082E993E060E205
:10162000D9D7BB2DB53610F0DD2049F06B2D70E019
:1016300085E993E044E020E00EE3E4D704C085E9C7
:1016400093E060E2C7D788E993E0B70142E223E282
:1016500004E27FD86B2D70E08CE993E043E624E64A
:1016600005E677D8E0901204F09013044090CB0385
:101670005090CC038091140490911504A090E50340
:10168000E1E0853F9E0778F4893C910570F485364A
:10169000910568F48333910560F421E08B30910566
:1016A00048F420E007C025E005C024E003C023E0A3
:1016B00001C022E0822F90E0880F991F0196889F39
:1016C0004001899F900C989F900C112495948794C9
:1016D0009594879400E010E0C22EC394B8016E0D7B
:1016E0007F1D8C2DA101930177D8881670F4B70166
:1016F000601B710B8C2DA10193016ED8881628F404
:101700000F5F1F4F0830110549F7C090A00380906C
:10171000A10309810C0D09831A81180D1A834BE569
:1017200050E0449E9001459E300D549E300D112492
:10173000235D374F232F332722952F70283008F051
:1017400020E06091A2038091A303FB2DF23010F002
:10175000255A01C02CE62C870ED7DC011C92882D5F
:101760006C2D09D731E2FC013083812F602F03D724
:101770002C85DC012C930093A2031093A303E4189F
:10178000F508F7FE04C0E8E6F1E0EE0EFF1E2BE5DB
:1017900030E0E29EC001E39E900DF29E900D112478
:1017A000835D974F80E19802812D990B1124182FAA
:1017B000883008F010E0155A84EA93E0B70143E05E
:1017C00020E200E21FD7F4EBEF16F1043CF484EAC8
:1017D00093E0B70143E020E2012F09C068E671E021
:1017E0006E197F0984EA93E043E0212F00E20AD7D3
:1017F0008091A8036091A703BED62091A903207809
:10180000AA2021F4DD2021F038E203C039E201C032
:1018100030E2232BDC012C938091F7038F5F8093C0
:10182000F7038091F7036EE11BD1992339F490916E
:10183000110481E0911180E0809311048091F703FD
:101840008C3338F01092F7038091F8038F5F809308
:10185000F8038091F8038C3338F01092F8038091EC
:10186000F9038F5F8093F9038091F9038C3308F4B7
:101870005ACC1092F90357CC1F920F920FB60F92C9
:1018800011242F933F934F935F936F937F938F9385
:101890009F93AF93BF93EF93FF93109285001092A5
:1018A000840084E28A95F1F74A9984C08091AC0360
:1018B0008F5F8A3118F48093AC0386C04091AD03EA
:1018C000413108F081C05091AA03242F30E084E216
:1018D00090E0289FD001299FB00D389FB00D1124B2
:1018E000FD01EF5EFE4F8081682F685F581708F496
:1018F0004FC0561708F04CC095E09A95F1F700C01C
:10190000AE5EBE4F952F981B8EE4989FC0011124A8
:101910008C5C9F4F23E23D91332351F0732F7F77EF
:101920007052FC01E70FF11DE49137FD0CC00DC0B2
:1019300000000000000000000000000000000000A7
:101940000000E0E002C0219A02C021980000EEBD34
:101950000000000000000000000000000000000087
:1019600000000000215009F0D6CF00000000000068
:101970000000000000000000000000000000000067
:101980000000000000000000000000001EBC2198C4
:10199000852F8F5F8F3F09F4852F861709F44F5FDE
:1019A0004093AD038093AA038A3A71F481E0809357
:1019B000AE030AC08091AA03893C30F01092AA03BA
:1019C0001092AC031092AD03FF91EF91BF91AF91D4
:1019D0009F918F917F916F915F914F913F912F9147
:1019E0000F900FBE0F901F9018951F920F920FB679
:1019F0000F9211242F938F939F939091AA0380911C
:101A0000AB03891721F48BB120E482278BB9909323
:101A1000AB039F918F912F910F900FBE0F901F904E
:101A20001895629FD001739FF001829FE00DF11D18
:101A3000649FE00DF11D929FF00D839FF00D749F48
:101A4000F00D659FF00D9927729FB00DE11DF91FF4
:101A5000639FB00DE11DF91FBD01CF011124089551
:101A6000991B79E004C0991F961708F0961B881FF0
:101A70007A95C9F780950895AA1BBB1B51E107C051
:101A8000AA1FBB1FA617B70710F0A61BB70B881F0E
:101A9000991F5A95A9F780959095BC01CD0108959D
:101AA00097FB092E07260AD077FD04D0E5DF06D084
:101AB00000201AF4709561957F4F0895F6F7909580
:101AC00081959F4F0895A1E21A2EAA1BBB1BFD0111
:101AD0000DC0AA1FBB1FEE1FFF1FA217B307E4070D
:101AE000F50720F0A21BB30BE40BF50B661F771F65
:101AF000881F991F1A9469F7609570958095909545
:0E1B00009B01AC01BD01CF010895F894FFCF09
:101B0E004750474741004750524D43002D3F3B2F12
:101B1E0000000000000000000000000000000000B7
:101B2E0000000000000000000000000000000000A7
:101B3E0000000000000C000000000000000000008B
:101B4E000000000000000000000000000000000087
:101B5E00000000000000000000480000000000002F
:101B6E000000000000000000000000000000000067
:101B7E000000000000000000000000000050000007
:101B8E000000000000000000000000000000000047
:101B9E000000000000000000000000000000000037
:101BAE0000580000000000000000000000000000CF
:101BBE000000000000000000000000000000000017
:101BCE0000000000006000000000000000000000A7
:101BDE0000000000000000000000000000000000F7
:101BEE00000000000000000000680000000000007F
:101BFE0000000000000000000000000000000000D7
:101C0E000000000000000000000000000070000056
:101C1E0000000000000000000000000000000000B6
:101C2E0000000000000000000000000000000000A6
:101C3E00007800000000000000000000000000001E
:101C4E000000000000000000000000000000000086
:101C5E0000000000008000000000000000000000F6
:101C6E000000000000000000000000000000000066
:101C7E0000000000000000000088000000000000CE
:101C8E000000000000000000000000000000000046
:101C9E0000000000000000000000000000900000A6
:101CAE000000000000000000000000000000000026
:101CBE000000000000000000000000000000000016
:101CCE00009800000000000000000000000000006E
:101CDE0000000000000000000000000000000000F6
:101CEE000000000000A00000000000000000000046
:101CFE0000000000000000000000000000000000D6
:101D0E00000000000000000000BF00000000000006
:101D1E0000000000000000000000000000000000B5
:101D2E0000000000000000000000000000CB0000DA
:101D3E000000000000000000000000000000000095
:101D4E000000000000000000000000000000000085
:101D5E0000D700000000000000000000000000009E
:101D6E000000000000000000000000000000000065
:101D7E000000000000000190FF1F1F0505000086F7
:101D8E0017108C00108B1E0084000E87000F870F1B
:101D9E0010861E08850108841D0200000502000041
:0A1DAE0011080F080F0F85110E81B8
:00000001FF
