:100000007FC166CC98C197C196C195C194C193C177
:1000100092C191C190C18FC18EC113CD8CC18BC1D2
:100020008AC189C188C187C186C185C184C183C194
:1000300082C181C100000000006480301210383895
:100040000000000038103838087C187C3838001060
:10005000083820007C387838787C7C384438044470
:1000600040444438783878387C44444444447810D8
:100070000000000000000000000010100000000060
:10008000000000380000006444482C28FEFE0000F8
:100090000004443044441840200444440010107CC0
:1000A0001040824444444440404444100448406C5E
:1000B00064444444444410444444444408283C08B0
:1000C0000000002078000000103840781200000086
:1000D00000440000000828304C44829200000008D0
:1000E00044100404284040084444301020440820B0
:1000F0003844444044404040441004504054544428
:10010000444444401044445428441044040404002B
:10011000404040000000107C40040A40180000826B
:100120003C202010300092829292003C001044103B
:10013000183848787810383C301040440410444453
:1001400078404478785C7C10046040444C447844A7
:1001500078381044445410282000040204004080E1
:10016000403C040410107018FE5024680082000007
:1001700000202400644482920000002044102004E7
:100180007C04442044040010204C0808107C4440A7
:100190004440404444104450404444444054480483
:1001A00010444454281040000404044440404000DB
:1001B00000007C1048200A60185400440000004CE5
:1001C000720054548EC630003040441040440844FD
:1001D000442044083010105C10041044444444404F
:1001E000404444104448404444444048444410443B
:1001F00028544410400000083C28782000000000EB
:100200003810481E1250005400380000004C700096
:10021000FC7CFEFE3000300038387C38083838204E
:1002200038303010087C200010447838787C403C0E
:10023000443838447C44443840344438103810281A
:1002400044107800000000100000000000001010B2
:100250004800004800440000203C2000000000004E
:10026000000020000000000000000000000000006E
:10027000000000000000000000000000000000007E
:10028000000000000000000000000000000000006E
:10029000000000000000000000043C04000000001A
:1002A000000000000004090D12161B1F23282C312A
:1002B00035393E42464B4F53575B6064686C7074EF
:1002C000787C8083878B8F9296999DA0A4A7ABAEF4
:1002D000B1B4B7BABEC0C3C6C9CCCED1D3D6D8DBB1
:1002E000DDDFE1E3E5E7E9EBECEEF0F1F3F4F5F661
:1002F000F7F8F9FAFBFCFDFDFEFEFEFFFFFFFF0035
:1003000011241FBECFEFD4E0DEBFCDBF13E0A0E0CD
:10031000B1E0E6E6FBE102C005900D92A63BB10715
:10032000D9F714E0A6EBB3E001C01D92A432B107E7
:10033000E1F79ED616CC64CE02C08856914021E0EB
:1003400088369207D0F7843B910520F0845B90407B
:1003500041E001C040E08A35910530F024EB30E007
:10036000B901681B790BCB018C559D4FFC01849121
:1003700090E0442319F0909581959F4F0895EF9256
:10038000FF920F931F93CF93DF93EC011AE500E0E8
:1003900010C0F12EF694EF2CE00E8E2D90E0CCDF05
:1003A0008C179D072CF4F0941F0D0E2D0F5F01C0CC
:1003B0001F2D112371F7802FDF91CF911F910F9186
:1003C000FF90EF900895CF92DF92EF92FF920F93FC
:1003D0001F93CF93DF93442309F49DC0421708F481
:1003E000242FFC01B5E0F695E795BA95E1F75E2F6D
:1003F0005F70FC01EF2FFF27E695FFE0FF2EFE2246
:10040000FC01EF2FFF27E295E695E7700E2F8F7125
:10041000E52FF0E0EF0DF11DE00FF11D1E2F110F84
:10042000180F87E6189FD0011124AB2FBB27A69584
:10043000A695EA2E39E0039F302D11243F0D952F0C
:10044000990F950F390F3A0F389FD0011124AB2F18
:10045000BB27A695A6955F2D550F550F5F0D500F25
:100460005A0F589FC0011124892F99278695869588
:10047000B02FBB0FBB0FBB0FB80F9AE1B99FE001C4
:1004800011246E010D2D253010F4DD2039F0902F50
:10049000905DFB019193415011F433C0FB0166EF75
:1004A000069F602D11246B0F243010F4662321F079
:1004B000605D6193415029F196EF899F902D112441
:1004C000950F233010F4992321F0905D91934150C2
:1004D000C1F086EFA89F802D1124830F223010F4E5
:1004E000882321F0805D8193413059F0A6EFEA9E88
:1004F000A02D1124A10F222311F4AA2311F0A05D35
:10050000A193CF01DF91CF911F910F91FF90EF90B9
:10051000DF90CF900895FB01F4CF1F93CF93DF932B
:10052000EC0168818CE3689FB0011124882777FD76
:100530008095982F1981212F2F77620F711D811DB2
:10054000911D20E737E140E050E097DA2A813B81B6
:1005500040E050E0620F731F841F951F17FF07C014
:1005600090958095709561957F4F8F4F9F4FDF914C
:10057000CF911F910895482F50E024E230E0429F30
:10058000C001439F900D529F900D1124860F911D25
:100590008E5E9E4F08951F93FC01128117FF11C0BC
:1005A00081816081E8DFFC011F77810F911D06C00A
:1005B0002081222311F0206820833196E817F90763
:1005C000B8F31F910895FC0101C01192E617F707D7
:1005D000E0F308951F93CF93DF93EC01162F8981E9
:1005E0006881C9DFFC018A818F779F01280F311D47
:1005F000C90101C01193E817F907E0F3DF91CF912A
:100600001F910895AF92BF92CF92DF92EF92FF9227
:100610000F931F93DF93CF930F92CDB7DEB77C017B
:100620005B01142FFC01818160812983A4DFBC015F
:10063000F70142814F776C01C40ED11C298122231E
:1006400021F0FC012193BF01415001114150C5012E
:10065000212FB9DE5C01002319F0FC0101935F0139
:10066000C70199DFC501B601AEDFC5010F90CF917B
:10067000DF911F910F91FF90EF90DF90CF90BF908F
:10068000AF900895CF92DF92FF920F931F93DF9365
:10069000CF930F92CDB7DEB78C016B01DC011196C1
:1006A0008C9111976C91498366DFFC01D6012C91E6
:1006B00011963C9111976FE7F62EF32212966D91E9
:1006C0007C911397331F3327331FCB01880F991F5A
:1006D00043E0660F771F4A95E1F7860F971F66E0A4
:1006E00070E0F6D96B014981442331F0332311F0D6
:1006F00083E50AC08EE408C0243608F4119233233F
:1007000011F087E501C085E48193822F90E0BF015D
:1007100043E022E058DEBC0187E2FB018193BF0188
:100720008F2D90E042E022E04EDEBC018EE2DB0144
:100730008D93BD01C60144E024E045DEC8012BDFF6
:100740000F90CF91DF911F910F91FF90DF90CF908D
:100750000895DF92EF92FF920F931F93CF93DF9351
:10076000FC0182819381680F791FCB01880F991F4B
:10077000880F991F860F971F6AE070E0A9D97383CD
:100780006283637039F0613039F0623039F4102FD0
:10079000042F06C0142F04C0122F02C0102F022FE6
:1007A000D080E180C0E0D0E0C0FF02C0F02E01C0E8
:1007B000F12EFE01EE0D8E2F6D2DDDDEFC01F0829F
:1007C0002196CC30D10581F7DF91CF911F910F9108
:1007D000FF90EF90DF9008956F927F928F929F929B
:1007E000BF92CF92DF92EF92FF920F931F93CF931E
:1007F000DF933A014901C82FD0E0BAE5EB2EF12C86
:10080000E60EF71ECB018C549F4F96DD9C012C9F6A
:10081000C0012D9F900D3C9F900D112400E011E030
:10082000B8016AD96B01C70187DDFC01EC9FC001EB
:10083000ED9F900DFC9F900D1124B8015DD9F3013F
:10084000C082F4016083669F802D1124CC9CB02C63
:1008500011248B0DDF91CF911F910F91FF90EF909D
:10086000DF90CF90BF909F908F907F906F90089572
:10087000FC0170E0DB01AA0FBB1FAA5FBB4F2D91EB
:100880003C9167587C4FDB014C9150E0429FC00186
:10089000439F900D529F900D11249C01232F3327CD
:1008A000269526952083322F2227330F330F821B64
:1008B000930B49E150E0849F9001859F300D949FF8
:1008C000300D11243183089580E1E0EEF3E0DF0183
:1008D0001D928A95E9F70895DC01E0EEF3E091912D
:1008E0008D91981731F483E0E53EF807C1F781E078
:1008F000089580E008951F93682F8091E0038D3262
:1009000021F070E0A0EEB3E003C071E0A1EEB3E02F
:1009100080E090E0FD0123E0A03FB207B1F01D911F
:10092000212F20532A3088F49C01220F331FAC0161
:10093000E3E0440F551FEA95E1F7240F351F812F9F
:1009400090E0C097820F931FE5CF6623C9F0208106
:100950002E3209F431969C01220F331F43E0880F99
:10096000991F4A95E1F7820F931F2081322F305350
:100970003A3020F4C097820F911D3196615059F79B
:10098000772319F0909581959F4F1F9108950F93AC
:100990001F93CF93DF93FC018091E0038D3231F4FC
:1009A0008091E103A1EEB3E021E003C0A0EEB3E04B
:1009B00020E08053ED012196880F182F110F110FA1
:1009C000180F11968C91180F1053DE011196139683
:1009D0008C9113978E3249F4110F812F880F880F55
:1009E000810F19811053180F1196ED0189918053D1
:1009F000880F982F990F990F980F11963C913053AB
:100A0000390FDE01129604E080E090E0EC01CC0F9B
:100A1000DD1F43E0880F991F4A95E1F7C80FD91FE2
:100A20004C91842F80538A3028F450E0405350403A
:100A3000119602C040E050E0CE01840F951F015096
:100A400029F7680F791F87E26031780718F0605145
:100A500077423F5F3C3310F03C531F5FCB01880F60
:100A6000991F860F971F880F991F10836AE070E007
:100A70002FD8738362832795222727953F77322BC0
:100A80003183DF91CF911F910F9108958091DE0303
:100A90008823C1F480E091E01FDF882331F081E0FA
:100AA0008093DE0310927803089586E091E014DFCE
:100AB000882309F49CC082E08093DE0384E680935F
:100AC000780308958091DD03882309F490C0809114
:100AD0007803883661F1893680F4873009F44CC098
:100AE000883020F4863009F082C03DC0893009F496
:100AF00048C0873609F07BC015C08B3609F448C062
:100B00008C3630F48936F1F08A3609F070C020C096
:100B10008C3609F445C0883C09F069C0E0EEF3E08A
:100B200080E057C08DEB93E06BE578E00FC08091DB
:100B3000E003833509F05BC08091BE038068809339
:100B4000BE03089581EC93E061EF70E120DF08952A
:100B50008091E003873509F04AC08091C203806824
:100B60008093C203089580E0C6DE21E0009709F477
:100B700020E02093CB03089580E0BDDE8093CA037C
:100B8000089580E0B8DE9093C6038093C50308956E
:100B900081E0B1DE6AE070E09BD76093C9030895FD
:100BA00080E0A9DE9093C8038093C70308958295DF
:100BB000807F292F2154263010F4975309C0292F04
:100BC0002156263010F4975503C090539A3008F4FC
:100BD000890F9191992321F023E0E13FF20739F742
:100BE00091E02091DF03821390E09093CC0308956D
:100BF0002F923F924F925F926F927F928F929F922D
:100C0000AF92BF92CF92DF92EF92FF920F931F931A
:100C1000DF93CF93CDB7DEB72D970FB6F894DEBF35
:100C20000FBECDBF2C017D836C835A8349832091F5
:100C3000CD033091CE034091CF035091D003FC01FE
:100C400080819181A281B381281739074A075B0708
:100C5000F9F42091D1033091D2034091D303509104
:100C6000D40384819581A681B781281739074A0763
:100C70005B0771F4DB011D921D921D921C9213976C
:100C8000E981FA81309709F46DC1118210826AC13D
:100C9000D2012C9130E08091CD0390E04091CE03C1
:100CA00011965C911197452747FF03C09095819558
:100CB0009F4F820F931F97FF03C0909581959F4F81
:100CC00095958795865A9F4F37DB1C018DEC93E0F5
:100CD00024DC5B016C01C20120DC3B014C0181ED95
:100CE00093E01BDC7B018C01C201049616DC9B01A6
:100CF000AC012E193F09400B510B6A187B088C0878
:100D00009D08B101882777FD8095982FB6D6E72EEC
:100D1000F82E092F112707FD1A9560E009C01595D7
:100D20000795F794E79495948794779467946F5F09
:100D3000A801970117FF07C022273327A9012E1901
:100D40003F09400B510B2F3FBFEF3B07B0E04B0774
:100D5000B0E05B0720F7D401C30197FE07C08827E6
:100D60009927DC0186199709A809B9098F3FEFEF88
:100D70009E07E0E0AE07E0E0BE0788F66B832E83B7
:100D80003F83488759878A879B87AC87BD87C8017F
:100D9000B701A801970171D61B012C01C401B30151
:100DA000A40193016AD6E0E0570168010FC022E078
:100DB00056944794379427942A95D1F702E0969554
:100DC0008795779567950A95D1F7EF5FE92EFF2410
:100DD00000271127252D332744275527E20EF31E20
:100DE000041F151FFFEFEF16F1040105110509F0AF
:100DF000F0F686017501260E371E481E591E60E169
:100E000070E0A12CB12CC12CA0E4DA2E80E090E09F
:100E1000DC01A6019501282B392B4A2B5B2BB695BB
:100E2000A79597958795221633064406550640F0F8
:100E3000221A330A440A550A8A299B29AC29BD295A
:100E400022E0D694C794B794A7942A95D1F761501D
:100E50007040F9F65C016D0104C0AA0CBB1CCC1CEF
:100E6000DD1CEA95D2F729813A812115310509F473
:100E70005DC0A114B104C104D10409F44DC06114D2
:100E800071048104910429F417FD49C08AE590E0BA
:100E900048C08E819F81A885B9852A853B854C8570
:100EA0005D8582179307A407B50760F0942F832F01
:100EB000722F6627A601950132D6C90160DA282F64
:100EC00030E011C02E813F8148855985942F832FB2
:100ED000722F6627A601950122D6C90150DA2AE5AC
:100EE00030E0281B310916141704180419044CF4B7
:100EF00017FD03C08AE590E00CC0C901825F9E4FD8
:100F000010C017FD04C0C901865A9F4F0AC08EE069
:100F100091E0821B930B05C080E090E002C08EE060
:100F200091E0A981BA8111969C938E93C601B50177
:100F300029E732E040E050E0A0D5EBE096958795B8
:100F400077956795EA95D1F70B8004C0660F771FF8
:100F5000881F991F0A94D2F7EC81FD816083718309
:100F6000828393832D960FB6F894DEBF0FBECDBF5C
:100F7000CF91DF911F910F91FF90EF90DF90CF9075
:100F8000BF90AF909F908F907F906F905F904F90A9
:100F90003F902F900895EF92FF920F931F93CF935E
:100FA000DF9306E713E080917603F80162918F01E9
:100FB000E2DAEC01F80182818F777E01E80EF11C04
:100FC000C801E9DACE01B701FEDACE01DF91CF9197
:100FD0001F910F91FF90EF9008956F927F928F92E3
:100FE0009F92AF92CF92EF920F931F93DF93CF9385
:100FF00000D0CDB7DEB73C01162FFC0181816081A6
:101000002A834983B8DABC01F30182818F774B01CF
:10101000880E911C2A814981EE2019F0FB01E19292
:10102000BF01812F90E0CFD9BC01AA2019F0FC01AB
:10103000A192BF01802F90E042E022E0C4D98C0150
:10104000CC2019F0FC01C1928F01C301A4DAC801C0
:10105000B401B9DA0F900F90CF91DF911F910F91EA
:10106000EF90CF90AF909F908F907F906F9008956A
:10107000DF93CF93CDB7DEB72C970FB6F894DEBFD2
:101080000FBECDBF80E28BB980E48AB929988CE08D
:1010900084B980916F00816080936F00809181009E
:1010A00082608093810083E08093690011E01DBB22
:1010B00080E880BF10927B001EBC8DB58E7F8DBDF9
:1010C00084E58CBD68DF10927E0080917C00806496
:1010D00080937C0080917A00866080937A001092E1
:1010E0007B001093C50087E38093C40086E0809363
:1010F000C20080E18093C100EDEBF3E0DF01282F17
:101100001D922A95E9F7EDECF3E0DF011D928A9537
:10111000E9F77894A2E06A2E712C6C0E7D1E1E01F8
:101120000894211C311C8091C00087FF94C010914D
:10113000C600909178039F3F21F4143209F08BC0D0
:1011400010C0143271F0153230F41A30A1F11D3094
:1011500009F06EC030C01A32F1F01C3209F068C0DC
:1011600015C01092DD031092DE031092DF0310927F
:101170007803ADEBB3E0EDECF3E080E101900D928C
:101180008150E1F71092CC039FDB65C08091DF03B3
:1011900081278093DF037ADC97DB1092DD03809157
:1011A00078038F5F809378031A3209F054C088EC7B
:1011B0008093780350C06ADC8FEF8093780380912E
:1011C000CC03882309F447C08091F0038F5F80939C
:1011D000F003843010F01092F003ADECB3E0EDEBCF
:1011E000F3E080E101900D928150E1F78091F103ED
:1011F000882389F18091D9039091F203981710F414
:101200008093F2038091D5039091D6032091FB0344
:101210003091FC03821B930B2091FD033091FE0360
:1012200028173907C4F49093FE038093FD0313C07D
:101230008091DD03E82FF0E0E052FC4F1083983CF2
:1012400029F09091DF0391279093DF038F3018F4FA
:101250008F5F8093DD034D9933C081E08093BB03A2
:101260008091BC038D33A0F15E9A8091CC038823DA
:1012700079F18091CB03882359F11092BC0310922D
:1012800000041092FF031092F2031092FE031092DA
:10129000FD031092020410920104A3EFB3E0EDEC01
:1012A000F3E08AE001900D928150E1F781E08093B4
:1012B000F10310920304109204041092050408C074
:1012C0008091BB0381115E981092BB031092BC0306
:1012D0008091BA03813009F026CF1092BA03809131
:1012E000BB03882329F08091BC038F5F8093BC03EC
:1012F000809103046CE3E0D3992309F06BC0E6E02E
:10130000F4E020E080917C00807F80937C008091DD
:101310007C00822B80937C0080917A00806A80938D
:101320007A0080917A00806480937A0080917A00BC
:1013300084FFFCCF80917A00806180937A00809155
:101340007A008F7580937A0080917800909179006F
:10135000819391932F5F2430A9F68EE094E061E0B1
:1013600087DA80E194E060E083DA8091DB03882310
:1013700089F180911204882361F4A3E1B4E0EDECDB
:10138000F3E08AE001900D928150E1F781E08093D3
:10139000120483E194E0B30140E050E029DC8A814B
:1013A0009B81AC81BD810097A105B10599F0209189
:1013B000FF0330910004280F391F3093000420935D
:1013C000FF03A3E1B4E0EDECF3E08AE001900D92BD
:1013D0008150E1F78091030466E06ED3992309F010
:1013E00047C2D0901D048091CB03882351F0809197
:1013F000F103882311F4DD2011F05E9A06C05E9897
:1014000004C08BB190E489278BB98091F1038823C4
:1014100009F183EF93E0B3014EE154E0E9DB8A8107
:101420009B81AC81BD81209101043091020440E098
:1014300050E0281739074A075B0720F4909302040D
:10144000809301048093200490932104A0932204AC
:10145000B09323048090D5039090D6038091FB0332
:101460009091FC03881A990AB090D9031091DB037C
:10147000F4013A97FF83EE83809120049091210438
:10148000A0912204B091230488879987AA87BB87FB
:1014900080910E04882391F094E6899FC001112465
:1014A00020910F04820F911D21E030E0A2E08E3EDA
:1014B0009A0710F020E030E0290102C044245524AE
:1014C00080911004882391F094E6899FC001112433
:1014D00020911104820F911D21E030E0B2E08E3E98
:1014E0009B0710F020E030E0C90102C080E090E0EE
:1014F000F82E60910504009104048DE793E043E029
:1015000022E0EE24CC24FAE3AF2E67DD112369F04C
:1015100080E893E061ED73E040E0B4D883E893E0C5
:101520006DEC73E041E0AED80AC080E893E06DE274
:1015300051D883E893E06DE24DD8DD2079F06091D9
:10154000DA0370E0E091F003F0E0E45FFE4F86E83C
:1015500093E042E026E2008155D804C086E893E09B
:1015600060E238D8442011F0DD2081F089E893E072
:1015700060910E0442E021E000910F04EAE2EE2EB9
:1015800076E5C72E5EE2A52E28DD04C089E893E04B
:1015900060E220D8FF2011F0DD2081F08CE893E09C
:1015A0006091100442E021E0009111043BE2E32E3F
:1015B00016E5C12EBEE2AB2E10DD04C08CE893E030
:1015C00060E208D86091F20370E08FE893E043E0B6
:1015D00020E000E017D86091FD037091FE0382E9DE
:1015E00093E044E020E00ED86091FF037091000486
:1015F00085E993E044E029E60DE604D86091010412
:101600007091020488E993E044E02AE6FBD78885DC
:101610009985AA85BB85813DE7E09E07E0E0AE079E
:10162000E0E0BE0710F0DD2059F0609120047091D9
:1016300021048BE993E044E020E00DE6E3D704C009
:101640008BE993E060E2C6D7740197FE02C0EE24F6
:10165000FF248E819F81A3E08F3D9A0710F0DD204B
:1016600041F08EE993E0B70145E02CE300E0CAD7F2
:1016700004C08EE993E060E2ADD7BB2DB53610F023
:10168000DD2049F06B2D70E081EA93E044E020E03A
:101690000EE3B8D704C081EA93E060E29BD784EA06
:1016A00093E0B70142E223E204E253D86B2D70E0ED
:1016B00088EA93E043E624E605E64BD8E0901E0472
:1016C000F0901F044090D7035090D80380912004DD
:1016D00090912104A090F103E1E0853F9E0778F40A
:1016E000893C910570F48536910568F48333910542
:1016F00060F421E08B30910548F420E007C025E03C
:1017000005C024E003C023E001C022E0822F90E066
:10171000880F991F0196889F4001899F900C989F80
:10172000900C1124959487949594879400E010E090
:10173000C22EC394B8016E0D7F1D8C2DA1019301A3
:101740004BD8881670F4B701601B710B8C2DA1016A
:10175000930142D8881628F40F5F1F4F08301105F7
:1017600049F7C090AC038090AD0309810C0D09834B
:101770001A81180D1A834BE550E0449E9001459E56
:10178000300D549E300D1124235D374F232F332706
:1017900022952F70283008F020E06091AE038091F0
:1017A000AF03FB2DF23010F0255A01C02CE62C8738
:1017B000E2D6DC011C92882D6C2DDDD631E2FC01D5
:1017C0003083812F602FD7D62C85DC012C9300939A
:1017D000AE031093AF03E418F508F7FE04C0E8E683
:1017E000F1E0EE0EFF1E2BE530E0E29EC001E39E2D
:1017F000900DF29E900D1124835D974F80E1980229
:10180000812D990B1124182F883008F010E0155AFB
:1018100080EB93E0B70143E020E200E2F3D6F4EB83
:10182000EF16F1043CF480EB93E0B70143E020E2D3
:10183000012F09C068E671E06E197F0980EB93E023
:1018400043E0212F00E2DED68091B4036091B30320
:1018500092D62091B5032078AA2021F4DD2021F032
:1018600038E203C039E201C030E2232BDC012C93C3
:10187000809103048F5F80930304809103046EE1E1
:101880001BD1992339F490911D0481E0911180E0DE
:1018900080931D04809103048C3338F0109203046C
:1018A000809104048F5F80930404809104048C333E
:1018B00038F010920404809105048F5F8093050432
:1018C000809105048C3308F42ECC109205042BCCA7
:1018D0001F920F920FB60F9211242F933F934F93A5
:1018E0005F936F937F938F939F93AF93BF93EF9388
:1018F000FF93109285001092840084E28A95F1F79C
:101900004A9984C08091B8038F5F8A3118F480931C
:10191000B80386C04091B903413108F081C05091AD
:10192000B603242F30E084E290E0289FD001299F65
:10193000B00D389FB00D1124FD01EF5EFE4F808188
:10194000682F685F581708F44FC0561708F04CC04E
:1019500095E09A95F1F700C0AE5EBE4F952F981BAB
:101960008EE4989FC00111248C5C9F4F23E23D912F
:10197000332351F0732F7F777052FC01E70FF11D75
:10198000E49137FD0CC00DC0000000000000000015
:1019900000000000000000000000E0E002C0219A0A
:1019A00002C021980000EEBD000000000000000011
:1019B000000000000000000000000000215009F0BD
:1019C000D6CF000000000000000000000000000072
:1019D0000000000000000000000000000000000007
:1019E000000000001EBC2198852F8F5F8F3F09F4F7
:1019F000852F861709F44F5F4093B9038093B60390
:101A00008A3A71F481E08093BA030AC08091B603E8
:101A1000893C30F01092B6031092B8031092B903CB
:101A2000FF91EF91BF91AF919F918F917F916F91B6
:101A30005F914F913F912F910F900FBE0F901F908C
:101A400018951F920F920FB60F9211242F938F9318
:101A50009F939091B6038091B703891721F48BB1BE
:101A600020E482278BB99093B7039F918F912F9198
:101A70000F900FBE0F901F901895629FD001739F1B
:101A8000F001829FE00DF11D649FE00DF11D929F1A
:101A9000F00D839FF00D749FF00D659FF00D992759
:101AA000729FB00DE11DF91F639FB00DE11DF91F7D
:101AB000BD01CF0111240895991B79E004C0991F3D
:101AC000961708F0961B881F7A95C9F78095089598
:101AD000AA1BBB1B51E107C0AA1FBB1FA617B70754
:101AE00010F0A61BB70B881F991F5A95A9F7809570
:101AF0009095BC01CD01089597FB092E07260AD0C9
:101B000077FD04D0E5DF06D000201AF470956195CA
:101B10007F4F0895F6F7909581959F4F0895A1E224
:101B20001A2EAA1BBB1BFD010DC0AA1FBB1FEE1F57
:101B3000FF1FA217B307E407F50720F0A21BB30BA2
:101B4000E40BF50B661F771F881F991F1A9469F71E
:101B500060957095809590959B01AC01BD01CF017A
:061B60000895F894FFCF88
:101B66004750474741004750524D43002D3F3B2FBA
:101B7600000000000000000000000000000000005F
:101B8600000000000000000000000000000000004F
:101B960000000000000C0000000000000000000033
:101BA600000000000000000000000000000000002F
:101BB60000000000000000000048000000000000D7
:101BC600000000000000000000000000000000000F
:101BD60000000000000000000000000000500000AF
:101BE60000000000000000000000000000000000EF
:101BF60000000000000000000000000000000000DF
:101C06000058000000000000000000000000000076
:101C160000000000000000000000000000000000BE
:101C2600000000000060000000000000000000004E
:101C3600000000000000000000000000000000009E
:101C46000000000000000000006800000000000026
:101C5600000000000000000000000000000000007E
:101C660000000000000000000000000000700000FE
:101C7600000000000000000000000000000000005E
:101C8600000000000000000000000000000000004E
:101C960000780000000000000000000000000000C6
:101CA600000000000000000000000000000000002E
:101CB600000000000080000000000000000000009E
:101CC600000000000000000000000000000000000E
:101CD6000000000000000000008800000000000076
:101CE60000000000000000000000000000000000EE
:101CF600000000000000000000000000009000004E
:101D060000000000000000000000000000000000CD
:101D160000000000000000000000000000000000BD
:101D26000098000000000000000000000000000015
:101D3600000000000000000000000000000000009D
:101D46000000000000A000000000000000000000ED
:101D5600000000000000000000000000000000007D
:101D6600000000000000000000BF000000000000AE
:101D7600000000000000000000000000000000005D
:101D860000000000000000000000000000CB000082
:101D9600000000000000000000000000000000003D
:101DA600000000000000000000000000000000002D
:101DB60000D7000000000000000000000000000046
:101DC600000000000000000000000000000000000D
:101DD6000000000000000190FF1F1F05050000869F
:101DE60017108C00108B1E0084000E87000F8701D1
:101DF60002831F02840800871500870F10861E08BD
:101E0600850108841D0200000502000011080F0864
:061E16000F0F85110E8183
:00000001FF
